:020000040800F2
:10000000982B0020CD010008D1010008D301000881
:10001000D5010008D7010008D90100080000000040
:10002000000000000000000000000000DB010008EC
:10003000DD01000800000000DF010008E101000808
:10004000E3010008E3010008E3010008E301000800
:10005000E3010008E3010008E3010008E3010008F0
:10006000E3010008E3010008E3010008E3010008E0
:10007000E3010008E3010008E3010008E3010008D0
:10008000E3010008E3010008E3010008E3010008C0
:10009000E3010008E3010008E3010008E3010008B0
:1000A000E30100080D0A0008E3010008E30100086D
:1000B0001B0B0008E30100080D3800085F2E000844
:1000C0007F300008E3010008E3010008E3010008B5
:1000D000E3010008E301000829330008E3010008F8
:1000E000E3010008E3010008E301000800F002F862
:1000F00000F05CF80AA090E8000C82448344AAF166
:100100000107DA4501D100F051F8AFF2090EBAE863
:100110000F0013F0010F18BFFB1A43F0010318473B
:1001200018640000386400000A444FF0000C10F816
:10013000013B13F0070408BF10F8014B1D1108BF65
:1001400010F8015B641E05D010F8016B641E01F805
:10015000016BF9D113F0080F1EBF10F8014BAD1C55
:100160000C1B09D16D1E58BF01F801CBFAD505E073
:1001700014F8016B01F8016B6D1EF9D59142D6D3CD
:10018000704700000023002400250026103A28BFF5
:1001900078C1FBD8520728BF30C148BF0B607047F9
:1001A0001FB505F064FE1FBD10B510BD03F076FF4E
:1001B0001146FFF7F5FF00F035F803F094FF03B4A4
:1001C000FFF7F2FF03BC03F099FF00000848004767
:1001D000FEE7FEE7FEE7FEE7FEE7FEE7FEE7FEE7F7
:1001E000FEE7FEE703480449044A054B7047000058
:1001F000ED000008980D0020982B0020981C00208E
:10020000981C002010B5002807DA0A07140EFE4AD1
:1002100000F00F031B1FD45403E00A07130EFB4A20
:10022000135410BD8AB0FA48006840F48030F84991
:10023000086000BFF648006800200028FAD1F448A2
:10024000406840F0E060F24948600846406840F489
:10025000002048600846406848600846C06A40F090
:100260009000C8620846406848600846406840F40C
:10027000806048600846406840F400504860E548A7
:100280000068E4490860E248006840F08070E04996
:10029000086000BFDE48006810F0007FFAD0DC483C
:1002A000406840F00200DA49486000BFD848406822
:1002B00000F00C000828F9D1D548406840F0806073
:1002C000D34948600846806940F07C008861084650
:1002D000806940F4006088610846C06940F0010010
:1002E000C8610846C06940F00400C86108468069DA
:1002F00040F00100886105220E21C74800F05AFC39
:1003000001220F21C44800F055FC08221146C248C2
:1003100000F050FC08220921BF4800F04BFC0822E5
:100320000A21BD4800F046FC08220B21BA4800F023
:1003300041FC08220C21B84800F03CFCB6480C30C7
:10034000006840F48070B4490C31086008460068C9
:1003500040F4007008600846006840F4806008605F
:100360000846006840F4006008600846006840F4F1
:100370008050086001220C21A84800F01BFC0122DB
:100380000B21A64800F016FCA4481030006840F08D
:100390008050A249103108600846006840F40060AF
:1003A00008609E48001D006840F001009B49091D3F
:1003B00008600846006840F00200086008460068CF
:1003C00020F0040008600846006840F0080008605B
:1003D00002F08CFC02F006FF00F02DFD0122114618
:1003E0008F48006800F0A9FD012202218D480068B5
:1003F00000F0A3FD012203218B48006800F09DFD61
:10040000012204218948006800F097FD00208849F6
:10041000086004E086480068401C854908608448FC
:10042000006884498842F5DB00F0A2FD05211C200C
:10043000FFF7E8FE4FF47A70C106088540F6864063
:1004400088850846008840F010000880084600882B
:1004500020F0100008800846008840F00100088065
:100460000846808940F0010088811C2000F087FB4D
:10047000714800687149086067480830006810F4E6
:10048000006F0BD140F2F530086000216C4803F09A
:1004900011FD00216A48001D03F00CFD03F0A3F8D4
:1004A00066480168644803F005FD00F061FD102115
:1004B000042000F005FDEC2003F0A1FA03F02CFB72
:1004C0006049086003F07AFB044604F0ABFB5E4928
:1004D000086040F2F5315C48006802F0D1FF5B49EA
:1004E0000860084600685A49086058480068594939
:1004F00008605648006858490860544800685749E1
:10050000086000205649086056490860564908604E
:1005100009211920FFF776FE4FF47A7053490880BD
:1005200040F27A30091D088050482838008840F091
:1005300010004E49283908800846008820F0100035
:1005400008800846008840F00100088047481C38B1
:10055000008840F0010045491C390880192000F04E
:100560000EFB4FF47A70424908802720091D08804D
:100570003F482838008840F010003D49283908805D
:100580000846008820F0100008800846008840F0E7
:100590000100088036481C38008840F001003449CA
:1005A0001C3908800B211E20FFF72CFE1E2000F0B6
:1005B000E6FA00BF18480830006800F48070B0F513
:1005C000807F61D114480830006800F40070B0F5F5
:1005D000007F59D110480830006800F48060B0F501
:1005E000806F51D10C480830006800F40060B0F50D
:1005F000006F49D108480830006800F48050B0F519
:10060000805F41D11B4837E018ED00E000E400E0D6
:100610000010024000200240001801400008014084
:1006200004000020080000200C0000201000002022
:1006300018000020FFFF0F0000E80308A8010020B9
:1006400000F00308F4020020F8020020F00200206D
:10065000FC020020BC010020000300200403002055
:10066000E8020020EC020020E0020020282C0140DB
:1006700028080040200000200068012804D1002044
:10068000FE490860FE490860FE48006810F4805F7B
:100690000FD1FA48006860B902F086F9F948001DE8
:1006A000006880F48040F749091D08600120F34983
:1006B0000860F448006810F4007F22D1EF48006819
:1006C000F8B9F148006880F00100EF490860ED4892
:1006D000001D006880F48040EA49091D086001207F
:1006E000E6490860E8480068012803D1E748006847
:1006F000E7490860E448006818B9E4480068E5493B
:100700000860E048006810F4806F37D1DB4800686B
:10071000A0BBE148006800F00300022806D1DE48D3
:10072000006820F00200DC4908601CE0DA4800683C
:1007300000F0030001280BD1D748006820F0010029
:10074000D54908600846006840F0020008600AE0E9
:10075000D148006810F0030F05D1CF48006840F081
:100760000100CD490860C748001D006880F4804042
:10077000C449091D08600120C0490860C1480068DB
:1007800010F4806F10D1BD48006801280CD1BC481E
:100790000068401CBA490860084600680F2803D169
:1007A000BA480068BD490860B648006810F4807F08
:1007B0002BD1B248006840BBB94800680390B948E3
:1007C00000680490B84800680590B8480068069032
:1007D000B74800680790AE4800680890AD480068C8
:1007E000099007A807C88DE8070003A80FC801F003
:1007F000B1FEA448001D006880F48040A149091D95
:10080000086001209D49086000BF9E48006810F400
:10081000006F0DD19948006850B99A48001D0068D2
:1008200080F480409749091D0860012093490860C1
:100830009948006800F00100012808D19748016834
:100840009248006805F050FB9049086009E0924822
:10085000006800F00200022803D1934800688B4929
:1008600008609348006804F08EFC04460022914B17
:1008700004F0C6FA064604F057FC80468648424615
:100880000368824801688C48006800F0ACFF8B4820
:100890000068E8BB8A480068D0BB8A4800687128B5
:1008A0001DD17948006880F0010077490860002078
:1008B000844908607448006830B98048006818B9F5
:1008C0008148006802F0E3FC6F480068012806D107
:1008D0007A48006818B97D48006802F0D8FC794869
:1008E00000687A2807D100207649086078480068B7
:1008F000401E7749086073480068782807D10020B7
:100900007049086072480068401C7149086000E046
:1009100006E06B48006818B901216E4802F0EEFC51
:100920005B4801685948006805F0DEFA04465E48F5
:100930000168204605F0A7FA07D2554801685348D8
:10094000006805F0D1FA58490860564801685A48CD
:10095000006805F098FA03D25748006851490860CA
:100960004F4801685448006805F086F903D25248A0
:1009700000684B49086058495848006805F052F82B
:10098000044657480168204605F07DFA03D8012047
:10099000544908600EE050495048006805F042F89C
:1009A00004464F480168204605F066F902D200204F
:1009B0004C4908604B48006820B9344800684A49EF
:1009C000086007E047480068012803D12F48006805
:1009D00046490860454801684348006805F084FAC4
:1009E000044632480168204605F04DFABFF4E2ADF6
:1009F0003C48006801287FF4DDAD3C4801683A4876
:100A0000006805F071FA29490860D3E570B53848E7
:100A1000008820F001003649088003F07DF8354950
:100A2000086003F0CBF8044604F0FCF83249086093
:100A3000164800682F490860304801682E48006851
:100A400002F01EFD114908600846006802F05DFDD5
:100A50002B48006828280CDA174801681F480068EE
:100A600004F072FF1D49086025480068401C2449B5
:100A7000086023480068282849DB43E02000002064
:100A80001C00002008180140B0010020F0020020E6
:100A9000BC010020C001002000000020FC0200205A
:100AA000C8010020C4010020B4010020B8010020CA
:100AB000AC01002000000440E00200209C01002066
:100AC0009801002098040020340000203800002005
:100AD0004C0100204B00002000002042D0010020EB
:100AE000D4010020D80100200003002004030020CE
:100AF000102C0140F4020020F8020020A801002080
:100B00003C00002000202449086024490860244853
:100B10000068401C2249086070BD2248006800F44B
:100B20000040B0F5004F08D11E48001D006840F09D
:100B300000401C49091D08600CE01A48006810F4C8
:100B4000004F07D11748001D006840F400401549C8
:100B5000091D08604FF08040008A20F001004FF02E
:100B60008041088200201049086010480068012870
:100B700004D10F480068401C0D490860704700F020
:100B80001F020121914042094FF0E02303EB820252
:100B9000C2F8001170470000D00100203C00002086
:100BA0002C0000200C18014058010020B00100204A
:100BB000AC01002070B50346082901DA184603E0AD
:100BC000181DA1F10804E1B204688E000F25B5409C
:100BD000AC43046004688D0002FA05F52C43046000
:100BE00070BD0000014605E0002200E0521CC82A4A
:100BF000FCDB491E0029F7DC7047F0B504460D46C2
:100C000004F00F062709012D0BD1E3480068C068E6
:100C1000E2490968891D01228A409043DE4909683A
:100C2000C8605DB9DC480068C068DC490968891D96
:100C300001228A401043D8490968C860D648006834
:100C4000C068D6490968491D01228A409043D249AB
:100C50000968C860D0480068C068D0490968091DA3
:100C600001228A401043CC490968C860CA4800681C
:100C7000C068CA490A680F2191408843C64909687B
:100C8000C860C5480068C068C449096807FA01F12E
:100C90000843C1490968C860BF480068C068BF49C7
:100CA0000968091D01228A409043BB490968C86050
:100CB0000A20FFF797FFB8480068C068B74909687D
:100CC000091D01228A401043B3490968C860B2482F
:100CD0000068C068B1490A680F2191408843AE4955
:100CE0000968C860AC480068C068AC49096806FA81
:100CF00001F10843A8490968C860A7480068C068AE
:100D0000A6490968091D01228A409043A249096841
:100D1000C8600A20FFF766FF0020F0BD10B504464A
:100D20009D480068C0689D490968491D01228A40A4
:100D3000904399490968C86097480068C068974916
:100D40000968891D01228A40904393490968C86057
:100D500091480068C06891490968091D01228A40CC
:100D600010438D490968C8608B480068C0688B498A
:100D70000A680F219140884387490968C8608648FE
:100D80000068C0688549096804FA01F1084382498E
:100D90000968C86080480068C06880490968091D02
:100DA00001228A4090437C490968C8600120FFF70E
:100DB00019FF002010BD10B5052278480068C1B2A7
:100DC00075480068FFF7F6FE052274480068401C6D
:100DD000C1B271480068FFF7EDFE05226F48006858
:100DE000801CC1B26C480068FFF7E4FE05226B4826
:100DF0000068C01CC1B268480068FFF7DBFE05222E
:100E000066480068001DC1B263480068FFF7D2FE63
:100E1000052262480068401DC1B25F480068FFF7C4
:100E2000C9FE05225D480068801DC1B25A480068AD
:100E3000FFF7C0FE10BD10B54FF47A60FFF7D2FE89
:100E4000FFF7B9FF0320FFF769FF40F24C40FFF7BF
:100E5000C9FE0320FFF762FF6420FFF7C3FE0320F3
:100E6000FFF75CFF6420FFF7BDFE0220FFF756FF8F
:100E70001420FFF7B7FE01212C20FFF7BEFE012151
:100E80000820FFF7BAFE01210620FFF7B6FE012178
:100E90000846FFF7B2FE4FF44870FFF7A3FE0121AA
:100EA0000F20FFF7AAFE002010BD0146002901DB3C
:100EB000802902DB4FF0FF30704701F18000FBE733
:100EC00070B505460C46042D01DC102C02DD4FF0F8
:100ED000FF3070BD012D06D0022D0DD0032D15D091
:100EE000042D27D11CE0601EFFF7DFFFC6B20121F1
:100EF0003046FFF782FEECE704F13F00FFF7D5FF35
:100F0000C6B201213046FFF778FEE2E704F10F0098
:100F1000FFF7CBFFC6B201213046FFF76EFED8E7E0
:100F200004F14F00FFF7C1FFC6B201213046FFF7C1
:100F300064FECEE74FF0FF30CBE7F0B505460E4636
:100F40001746042E01DC102F02DD4FF0FF30F0BDFC
:100F500039463046FFF7B4FF002404E0285D002145
:100F6000FFF74BFE641C285D0028F7D100BFEEE7B9
:100F700030B501240DE001212046FFF7A1FF012536
:100F800004E000212020FFF738FE6D1C102DF8DD55
:100F9000641C042CEFDD30BD5400002058000020FC
:100FA0000146052920D006DC052931D2DFE801F011
:100FB0002B101316190008291FD004DC062916D09F
:100FC000072925D116E009291AD02E2920D11DE0A4
:100FD000F84840687047F7488068FBE7F548C06804
:100FE000F8E7F4480069F5E7F2484069F2E7F148AC
:100FF0008069EFE7EF48C069ECE7EE48006AE9E78F
:10100000EC48406AE6E7EB480068E3E72E20E1E7BA
:101010002020DFE72DE9FF4103460C460020009029
:10102000019002900390002700250026002B00DA93
:101030000127191E01DB0A4600E04A42B2F57A7F19
:101040004CDB181E01DB024600E0424242F2107CFB
:10105000624543DA181E01DB014600E041424FF4CD
:101060007A7291FBF2F10091181E01DB014600E05B
:1010700041424FF47A7291FBF2FC02FB1C11642294
:1010800091FBF2F10191181E01DB014600E04142A3
:10109000642291FBF2FC02FB1C110A2291FBF2F18B
:1010A0000291181E01DB014600E041420A2291FB39
:1010B000F2FC02FB1C110391012F02D12D202070A4
:1010C0006D1C00BF06E05DF82600FFF769FF605564
:1010D0006D1C761C042EF6DB00206055191E01DB0A
:1010E0000A4600E04A42642A41DB181E01DB024640
:1010F00000E04242B2F57A7F39DA181E01DB014680
:1011000000E041424FF47A7291FBF2FC02FB1C11A9
:10111000642291FBF2F10091181E01DB014600E010
:101120004142642291FBF2FC02FB1C110A2291FB5A
:10113000F2F10191181E01DB014600E041420A2252
:1011400091FBF2FC02FB1C110291012F02D12D2018
:1011500020706D1C00BF06E05DF82600FFF720FF41
:1011600060556D1C761C032EF6DB00206055191EA1
:1011700001DB0A4600E04A420A2A31DB181E01DB85
:10118000024600E04242642A2ADA181E01DB0146C8
:1011900000E04142642291FBF2FC02FB1C110A2296
:1011A00091FBF2F10091181E01DB014600E0414283
:1011B0000A2291FBF2FC02FB1C110191012F02D1CA
:1011C0002D2020706D1C00BF06E05DF82600FFF7A3
:1011D000E7FE60556D1C761C022EF6DB0020605584
:1011E000191E01DB0A4600E04A42002A25DB181ED0
:1011F00001DB024600E042420A2A1EDA012F0FD12B
:101200002D202070B3F1000801DB414601E0C8F158
:1012100000010846FFF7C4FE60700020A0700CE0DB
:10122000B3F1000801DB414601E0C8F100010846C6
:10123000FFF7B6FE207000206070BDE8FF812DE949
:10124000F74F88B00C4617461C2101A802F0E8FEB3
:101250004FF0000800250026AA460021089804F057
:101260000BFD01D24FF00108089804F0D1FCB0F159
:10127000000B01DB584601E0CBF10000B0F57A7FAE
:101280007EDB089804F0C4FCB0F1000901DB48469D
:1012900001E0C9F1000042F21071884270DA46495B
:1012A000089804F01DFD08904FF07E51089804F056
:1012B000B9FB0890089804F0ABFCB0F1000901DB21
:1012C000484601E0C9F100003C4990FBF1F0019073
:1012D000089804F09DFCB0F1000901DB484601E0EC
:1012E000C9F10000354990FBF1F201FB120042F216
:1012F000107190FBF1F00290089804F089FCB0F1B5
:10130000000901DB484601E0C9F1000042F210711A
:1013100090FBF1F201FB12004FF47A7190FBF1F0B7
:101320000390089804F074FCB0F1000901DB484612
:1013300001E0C9F100004FF47A7190FBF1F201FB7A
:101340001200642190FBF1F004902E200590089883
:1013500004F05EFCB0F1000901DB484601E0C9F190
:101360000000642190FBF1F201FB12000A2190FBC6
:10137000F1F00690022F12D1089804F049FC00E029
:101380002CE0B0F1000901DB484601E0C9F10000A2
:101390000A2190FBF1F201FB1200079001E04FF0EF
:1013A000010AB8F1010F02D12D2020706D1C00BF81
:1013B0000EE00000A00000200000C842A08601004E
:1013C00001A951F82600FFF7EBFD60556D1C761C56
:1013D000CAF10600B042F3DA00206055089804F024
:1013E00017FCB0F1000B01DB584601E0CBF1000027
:1013F000642873DB089804F00BFCB0F1000901DBF2
:10140000484601E0C9F10000B0F57A7F66DAFE498E
:10141000089804F065FC08904FF07E51089804F09D
:1014200001FB0890089804F0F3FBB0F1000901DB20
:10143000484601E0C9F10000F44990FBF1F201FBDC
:10144000120042F2107190FBF1F00190089804F044
:10145000DFFBB0F1000901DB484601E0C9F1000003
:1014600042F2107190FBF1F201FB12004FF47A711D
:1014700090FBF1F00290089804F0CAFBB0F100096B
:1014800001DB484601E0C9F100004FF47A7190FB9E
:10149000F1F201FB1200642190FBF1F003902E2089
:1014A0000490089804F0B4FBB0F1000901DB484651
:1014B00001E0C9F10000642190FBF1F201FB120090
:1014C0000A2190FBF1F00590022F11D1089804F049
:1014D0009FFBB0F1000902DB484602E020E0C9F1C1
:1014E00000000A2190FBF1F201FB1200069001E0DE
:1014F0004FF0010AB8F1010F02D12D2020706D1CB0
:1015000000BF07E001A951F82600FFF749FD60552B
:101510006D1C761CCAF10500B042F3DA002060555C
:10152000089804F075FBB0F1000B01DB584601E0B0
:10153000CBF100000A2871DB089804F069FBB0F1D8
:10154000000901DB484601E0C9F10000642874DAB3
:10155000AD49089804F0C4FB08904FF07E510898FC
:1015600004F060FA0890089804F052FBB0F100090A
:1015700001DB484601E0C9F1000042F2107190FB26
:10158000F1F201FB12004FF47A7190FBF1F001903F
:10159000089804F03DFBB0F1000901DB484601E08A
:1015A000C9F100004FF47A7190FBF1F201FB1200D7
:1015B000642190FBF1F002902E200390089804F033
:1015C00027FBB0F1000901DB484601E0C9F100004A
:1015D000642190FBF1F201FB12000A2190FBF1F073
:1015E0000490022F10D1089804F012FBB0F100090A
:1015F00001DB484601E0C9F100000A2190FBF1F24D
:1016000001FB1200059001E04FF0010AB8F1010F53
:1016100002D12D2020706D1C00BF08E00DE001A953
:1016200051F82600FFF7BCFC60556D1C761CCAF112
:101630000400B042F3DA00206055089804F0E8FA9C
:10164000B0F1000B01DB584601E0CBF100000028AF
:1016500063DB089804F0DCFAB0F1000901DB4846CE
:1016600001E0C9F100000A2857DA6749089804F038
:1016700037FB08904FF07E51089804F0D3F908909A
:10168000B8F1010F4DD12D202070089804F0C0FA58
:10169000B0F1000901DB484601E0C9F100004FF458
:1016A0007A7190FBF1F201FB1200642190FBF1FBD7
:1016B0005846FFF775FC60702E20FFF771FCA07094
:1016C000089804F0A5FAB0F1000901DB484601E0F2
:1016D000C9F10000642190FBF1F201FB12000A2124
:1016E00090FBF1FB5846FFF75BFCE070022F15D131
:1016F000089804F08DFAB0F1000901DB484601E0DA
:10170000C9F100000A2190FBF1F201FB120B5846CF
:10171000FFF746FC2071002060714DE00020207131
:101720004AE0089804F074FAB0F1000901DB484679
:1017300001E0C9F100004FF47A7190FBF1F201FB76
:101740001200642190FBF1FB5846FFF729FC207042
:101750002E20FFF725FC6070089804F059FAB0F1CC
:10176000000901DB484601E0C9F10000642190FB5B
:10177000F1F201FB12000A2190FBF1FB5846FFF742
:101780000FFCA070022F15D1089804F041FAB0F1B7
:10179000000901DB484601E0C9F100000A2190FB85
:1017A000F1F201FB120B5846FFF7FAFBE070002044
:1017B000207101E00020E0700BB0BDE8F08F024620
:1017C000012009E0135C23B94B1C984201D020236F
:1017D000135400235354401C0D4B1B68984201DAEC
:1017E0008842EFDB70472DE9F04397B08146884689
:1017F00016461F4607F00100012804D1054801687C
:101800000DA802F0B7FB07E00000C842A086010067
:101810005C000020D800002007F00200022804D15C
:10182000FE4801680DA802F0A5FB07F0010007F0D3
:101830000201084304D1FA4801680DA802F09AFB9E
:10184000012203A94046FFF7FAFC404604F050F895
:1018500004460022F34B03F039FE0DD2404604F05B
:1018600047F804460022F04B03F0F6FC04D803A925
:101870000DF13B0002F07EFB404604F039F80446CF
:101880000022E94B03F022FE0CD2404604F030F86F
:1018900004460022E54B03F0DFFC03D803A90FA8A0
:1018A00002F068FB404604F023F804460022DF4BB8
:1018B00003F00CFE0DD2404604F01AF80446002254
:1018C000134603F0C9FC04D803A90DF13D0002F052
:1018D00051FB404604F00CF804460022D44B03F0C0
:1018E000BBFC0DD2404604F003F804460022134628
:1018F00003F0ECFD04D803A90DF13E0002F03AFB21
:10190000404603F0F5FF04460022C94B03F0DEFD1C
:101910000DD8404603F0ECFF04460022C54B03F00F
:101920009BFC04D203A90DF13D0002F023FB4046CD
:1019300003F0DEFF04460022BE4B03F0C7FD0CD8C7
:10194000404603F0D5FF04460022BB4B03F084FC65
:1019500003D203A90FA802F00DFB404603F0C8FF15
:1019600004460022B44B03F0B1FD0DD8404603F00D
:10197000BFFF04460022B14B03F06EFC04D203A962
:101980000DF13B0002F0F6FA10210DA8FFF717FF4A
:10199000012202210DA8FFF7D0FA07F00400042865
:1019A00004D1A748016808A802F0E4FA07F008008B
:1019B000082804D1A348016808A802F0DBFA07F060
:1019C0001000102804D1A048016808A802F0D2FA3B
:1019D00007F0040007F00801084307F0100108436E
:1019E0005BD19A48016808A802F0C4FA012201A953
:1019F0004846FFF724FC484603F07AFF04460022DD
:101A00008A4B03F029FC04D801A90DF1260002F04D
:101A1000B1FA484603F06CFF04468D4A8D4B03F043
:101A200055FD0DD2484603F063FF044600221346DD
:101A300003F012FC04D201A90DF1270002F09AFA7A
:101A4000484603F055FF04460022134603F03EFDCE
:101A50000CD8484603F04CFF04460022744B03F0B8
:101A6000FBFB03D201A90AA802F084FA484603F05E
:101A70003FFF044600226E4B03F028FD04D801A965
:101A80000DF1270002F076FA102108A8FFF797FE63
:101A90000122032108A8FFF750FA0021484604F06C
:101AA00083F87DD017F0200F7BD16B49484604F0B6
:101AB000E3F80ED80922042168480068FFF73DFAD0
:101AC0000122042166480068FFF737FA012001F07F
:101AD00092FE6149484604F0D6F917D2484603F011
:101AE00007FF044600225F4B03F0B6FB0ED8092225
:101AF00004215A480068FFF720FA012204215A48BD
:101B00000068FFF71AFA022001F075FE484603F05C
:101B1000EFFE04460022534B03F0D8FC13D2534986
:101B2000484604F0A9F80ED8092204214B48006861
:101B3000FFF703FA012204214D480068FFF7FDF981
:101B4000032001F058FE4949484604F09CF917D299
:101B5000484603F0CDFE04460022464B03F07CFBD2
:101B60000ED8092204213D480068FFF7E6F901225A
:101B7000042141480068FFF7E0F9042001F03BFE32
:101B8000484603F0B5FE044600223A4B03F09EFCA3
:101B900016D23A49484604F06FF811D8092201E0FC
:101BA000FCE378E304212D480068FFF7C6F9012221
:101BB000042133480068FFF7C0F9052001F01BFE3F
:101BC0002E49484604F05FF917D2484603F090FECC
:101BD000044600222B4B03F03FFB0ED809220421C0
:101BE0001E480068FFF7A9F9012204212648006871
:101BF000FFF7A3F9062001F0FEFD484603F078FE4A
:101C0000044600221F4B03F061FC4ED21F49484698
:101C100004F032F849D80922042139E0F00000200C
:101C2000D400002000408FC0000059C0000024C034
:101C3000000024400000594000408F400088C3400D
:101C4000E8000020E0000020E4000020DC0000208C
:101C5000CDCCCCCCCCCC23C00000E0C044010020D3
:101C60000801002000001AC00C0100200000C0C0C4
:101C700010010020000016C0140100200000A0C0C8
:101C800018010020000012C01C010020000080C0CC
:101C9000FE480068FFF751F901220421FC48006862
:101CA000FFF74BF9072001F0A6FDFA49484604F07A
:101CB000EAF817D2484603F01BFE04460022F64B12
:101CC00003F0CAFA0ED809220421F0480068FFF791
:101CD00034F901220421F1480068FFF72EF90820A9
:101CE00001F089FD484603F003FE04460022EA4B5A
:101CF00003F0ECFB13D2EA49484603F0BDFF0ED8CF
:101D000009220421E1480068FFF717F901220421A4
:101D1000E4480068FFF711F9092001F06CFDE04983
:101D2000484604F0B0F817D2484603F0E1FD0446F7
:101D30000022DD4B03F090FA0ED809220421D3488B
:101D40000068FFF7FAF801220421D8480068FFF77D
:101D5000F4F80A2001F04FFD484603F0C9FD04469F
:101D60000022D14B03F0B2FB14D24FF04041484661
:101D700003F082FF0ED809220421C4480068FFF74F
:101D8000DCF801220421CA480068FFF7D6F80B20CE
:101D900001F031FD4FF04041484604F074F817D28D
:101DA000484603F0A5FD04460022C24B03F054FA56
:101DB0000ED809220421B5480068FFF7BEF80122B9
:101DC0000421BD480068FFF7B8F80C2001F013FDAE
:101DD000484603F08DFD04460022B64B03F076FB27
:101DE00013D2B649484603F047FF0ED80922042112
:101DF000A6480068FFF7A1F801220421B048006856
:101E0000FFF79BF80D2001F0F6FCAC49484604F0C2
:101E10003AF817D2484603F06BFD04460022A94B5E
:101E200003F01AFA0ED80922042198480068FFF737
:101E300084F801220421A4480068FFF77EF80E20F0
:101E400001F0D9FC484603F053FD044600229D4BA7
:101E500003F03CFB13D20021484603F00DFF0ED2E5
:101E60000922042189480068FFF767F8012204214C
:101E700096480068FFF761F80F2001F0BCFC0021D4
:101E8000484604F000F817D2484603F031FD0446F6
:101E900000228F4B03F0E0F90ED8012204217B4889
:101EA0000068FFF74AF8092204218A480068FFF712
:101EB00044F8102001F09FFC484603F019FD044649
:101EC0000022834B03F002FB14D24FF07E514846B0
:101ED00003F0D2FE0ED8012204216C480068FFF7FF
:101EE0002CF8092204217C480068FFF726F811200D
:101EF00001F081FC4FF07E51484603F0C4FF17D239
:101F0000484603F0F5FC04460022744B03F0A4F9A4
:101F10000ED8012204215D480068FFF70EF809225F
:101F200004216F480068FFF708F8122001F063FCF5
:101F3000484603F0DDFC04460022684B03F0C6FA75
:101F400014D24FF08041484603F096FE0ED801228D
:101F500004214E480068FEF7F0FF09220421614881
:101F60000068FEF7EAFF132001F045FC4FF08041C6
:101F7000484603F088FF17D2484603F0B9FC0446F0
:101F80000022594B03F068F90ED8012204213F4882
:101F90000068FEF7D2FF0922042154480068FEF7CA
:101FA000CCFF142001F027FC484603F0A1FC0446B6
:101FB00000224D4B03F08AFA13D24D49484603F0F4
:101FC0005BFE0ED80122042130480068FEF7B5FF01
:101FD0000922042147480068FEF7AFFF152001F0F1
:101FE0000AFC4349484603F04EFF17D2484603F027
:101FF0007FFC04460022404B03F02EF90ED801224C
:10200000042122480068FEF798FF09220421204895
:102010000068FEF792FF162001F0EDFB484603F042
:1020200067FC04460022344B03F050FA14D24FF000
:102030008141484603F020FE0ED8012204211348B6
:102040000068FEF77AFF0922042114480068FEF7B1
:1020500074FF172001F0CFFB4FF08141484603F099
:1020600012FF52D2484603F043FC04460022234BA1
:1020700003F0F2F849D80122042104480068FEF771
:102080005CFF092204210748006839E04401002070
:1020900020010020000080C000000CC024010020AE
:1020A000000040C028010020000004C02C010020D6
:1020B000300100200000F8BF34010020000080BF84
:1020C000380100200000E0BF3C010020400100205A
:1020D0000000E03F080100200C0100200000F83F54
:1020E000100100201401002000000440180100200D
:1020F000000040401C01002000000C400000124085
:10210000FEF71BFF182001F076FB484603F0F0FBBA
:1021100004460022FB4B03F0D9F913D2FA49484692
:1021200003F0AAFD0ED801220421F8480068FEF74A
:1021300004FF09220421F6480068FEF7FEFE19207C
:1021400001F059FBF049484603F09DFE17D248467E
:1021500003F0CEFB04460022EE4B03F07DF80ED8D0
:1021600001220421E9480068FEF7E7FE0922042164
:10217000E9480068FEF7E1FE1A2001F03CFB484602
:1021800003F0B6FB04460022E24B03F09FF913D2A2
:10219000E249484603F070FD0ED801220421DB48D5
:1021A0000068FEF7CAFE09220421DD480068FEF738
:1021B000C4FE1B2001F01FFBD849484603F063FE14
:1021C00017D2484603F094FB04460022D54B03F097
:1021D00043F80ED801220421CC480068FEF7ADFE7A
:1021E00009220421D0480068FEF7A7FE1C2001F058
:1021F00002FB484603F07CFB04460022C94B03F077
:1022000065F913D2C949484603F036FD0ED80122BC
:102210000421BE480068FEF790FE09220421C4484C
:102220000068FEF78AFE1D2001F0E5FABF49484626
:1022300003F029FE17D2484603F05AFB0446002259
:10224000BC4B03F009F80ED801220421AF48006806
:10225000FEF773FE09220421B7480068FEF76DFE01
:102260001E2001F0C8FA484603F042FB0446002253
:10227000B04B03F02BF90ED201220421A3480068D1
:10228000FEF75BFE09220421AB480068FEF755FE0D
:102290001F2001F0B0FA07F0200020287ED0002196
:1022A000484603F0F0FD07D2484603F021FB044600
:1022B0000022A24B02F0D0FF484603F019FB04466F
:1022C00000229E4B03F002F904D24FF07E514846A3
:1022D00003F0D2FC4FF07E51484603F0D4FD07D204
:1022E000484603F005FB04460022954B02F0B4FF7C
:1022F000484603F0FDFA04460022914B03F0E6F84D
:1023000004D24FF08041484603F0B6FC4FF08041C4
:10231000484603F0B8FD07D2484603F0E9FA044600
:102320000022884B02F098FF484603F0E1FA044689
:102330000022844B03F0CAF803D28349484603F0D5
:102340009BFC8149484603F09EFD07D2484603F0B6
:10235000CFFA044600227D4B02F07EFF484603F090
:10236000C7FA04460022794B03F0B0F804D24FF0CC
:102370008141484603F080FC4FF08141484603F01C
:1023800082FD07D2484603F0B3FA044600225D4BB3
:1023900002F062FF484603F0ABFA00E052E0044668
:1023A0000022584B03F092F803D25749484603F0F5
:1023B00063FC5549484603F066FD07D2484603F0E2
:1023C00097FA04460022534B02F046FF484603F0BA
:1023D0008FFA044600224F4B03F078F803D24F499E
:1023E000484603F049FC4D49484603F04CFD07D2EE
:1023F000484603F07DFA044600224A4B02F02CFFC7
:10240000484603F075FA04460022464B03F05EF896
:1024100003D24649484603F02FFC4449484603F09E
:1024200032FD07D2484603F063FA04460022414BCE
:1024300002F012FF484603F05BFA044600223D4BCF
:1024400003F044F84248016812A801F093FD3446B5
:1024500006EBD471481006A9FEF7DCFD06EBD67139
:102460000A22B2EB610F03DD06A915A801F082FD77
:1024700006EBD6725210642A09DA06EBD6725210B5
:102480000A2A04DB06A90DF1530001F073FD06EBE7
:10249000D6725210B2F57A7F09DA06EBD672521074
:1024A000642A04DB06A90DF1520001F063FD06EB7E
:1024B000D672521042F210739A420ADA06EBD672C2
:1024C0005210B2F57A7F04DB06A90DF1510001F03C
:1024D00051FD102112A8FFF772F90122114612A82E
:1024E000FEF72BFD17B0BDE8F0830246002004E0A4
:1024F00052F8203041F82030401C52F82030002B98
:10250000F6D17047000012400000A04044010020B6
:102510002C01002000001640300100200000C040C7
:102520003401002000001A40380100200000E04083
:102530003C01002000001E40400100200000E03F60
:102540000000F83F000004400000404000000C4044
:10255000D00000200FB470B586B000240025FEA680
:10256000FEF706FD012401221146FD480068FEF732
:10257000E4FCEEE1FB480068012832D1012C30D1A7
:10258000052202213046FEF7D8FC03A9F548006871
:10259000FEF740FD0722022103A8FEF7CEFC03A9A7
:1025A000F1480068FEF736FD0922022103A8FEF774
:1025B000C4FC012203A90A98FEF741FE012203216F
:1025C000EA480068FEF7B9FC01220421E8480068E7
:1025D000FEF7B3FC0922042103A8FEF7AEFC002499
:1025E0006DE1E0480068022831D1012C2FD105228D
:1025F00002213046FEF7A1FC03A9DA480068FEF785
:1026000009FD0722022103A8FEF797FC03A9D6487B
:102610000068FEF7FFFC0922022103A8FEF78DFCEB
:10262000012203A90B98FEF70AFE01220321D148DB
:102630000068FEF782FC01220421CD480068FEF705
:102640007CFC0922042103A8FEF777FC37E1C5488A
:102650000068032831D1012C2FD1052202213046F8
:10266000FEF76BFC03A9BF480068FEF7D3FC072206
:10267000022103A8FEF761FC03A9BB480068FEF72E
:10268000C9FC0922022103A8FEF757FC012203A975
:102690000C98FEF7D4FD01220321B7480068FEF72D
:1026A0004CFC01220421B2480068FEF746FC0922D6
:1026B000042103A8FEF741FC01E1AA4800680428B0
:1026C00031D1012C2FD1052202213046FEF735FCF5
:1026D00003A9A4480068FEF79DFC0722022103A875
:1026E000FEF72BFC03A9A0480068FEF793FC092223
:1026F000022103A8FEF721FC012203A90D98FEF791
:102700009EFD012203219D480068FEF716FC012270
:10271000042197480068FEF710FC0922042103A851
:10272000FEF70BFCCBE08F480068052830D1012C68
:102730002ED1052202213046FEF7FFFB03A989486E
:102740000068FEF767FC0722022103A8FEF7F5FBED
:1027500003A985480068FEF75DFC0922022103A851
:10276000FEF7EBFB03A90E98FEF754FC01220321B0
:1027700083480068FEF7E1FB012204217C480068E1
:10278000FEF7DBFB0922042103A8FEF7D6FB96E047
:1027900074480068062831D1012C2FD1052202216E
:1027A0003046FEF7CAFB03A96E480068FEF732FC0C
:1027B0000722022103A8FEF7C0FB03A96A480068AC
:1027C000FEF728FC0922022103A8FEF7B6FB02222D
:1027D00003A90F98FEF733FD012203216948006821
:1027E000FEF7ABFB0122042161480068FEF7A5FB60
:1027F0000922042103A8FEF7A0FB60E05948006805
:10280000072831D1012C2FD1052202213046FEF7B5
:1028100094FB03A953480068FEF7FCFB0722022142
:1028200003A8FEF78AFB03A94F480068FEF7F2FBF6
:102830000922022103A8FEF780FB022203A91098B7
:10284000FEF7FDFC012203214F480068FEF775FBEF
:102850000122042146480068FEF76FFB092204218B
:1028600003A8FEF76AFB2AE03E480068082826D144
:10287000012C24D1052202213046FEF75EFB03A97C
:1028800038480068FEF7C6FB0722022103A8FEF7BE
:1028900054FB03A934480068FEF7BCFB092202215F
:1028A00003A8FEF74AFB0122032131480068FEF726
:1028B00044FB0122042135480068FEF73EFB344802
:1028C000006810F4007F0ED1264800682649096888
:1028D000884208DC3DB923480068401C2149086053
:1028E0000125012435E02A48006810F4806F0CD1DE
:1028F0001C480068002808DD3DB91A480068401EE1
:10290000184908600125012423E02148006810F4DB
:10291000805F0CD113480068082808D10EA807C8AA
:102920008DE807000AA80FC800F0D7FE11E018488C
:10293000006800F48060B0F5806F0AD11448006828
:1029400000F40070B0F5007F03D1012D01D1002506
:1029500000240F4800681DE05B5B202F205D5D00B8
:102960006000002050010020C8000020640000200A
:10297000EC000020680000206C00002070000020A7
:1029800074000020780000207C00002080000020DF
:102990000818014000F40060B0F5006F3FF4EAADA4
:1029A00006B070BC5DF814FB2DE9F0438DB0002734
:1029B00000240FF2F429FEF7DBFA01270122114669
:1029C000BE480068FEF7B9FA53E1BD48006800F45C
:1029D0008060B0F5806F11D1B948006800F40070D4
:1029E000B0F5007F0AD1B648006800F48070B0F5F9
:1029F000807F03D1012C01D100240027B148006859
:102A000001282CD1012F2AD101221146AB480068A0
:102A1000FEF793FA012202214846FEF78EFA0AA930
:102A2000A8480068FEF7F6FA072202210AA8FEF776
:102A300084FA0AA9A4480068FEF7ECFA09220221E8
:102A40000AA8FEF77AFA01220321A0480068FEF7DF
:102A500074FA012204219E480068FEF76EFA994834
:102A60000068022832D1012F30D10122114693484B
:102A70000068FEF762FA012202214846FEF75DFA7D
:102A80000AA990480068FEF7C5FA072202210AA8A1
:102A9000FEF753FA0AA98C480068FEF7BBFA092230
:102AA00002210AA8FEF749FA01220321874800689B
:102AB000FEF743FA0122032186480068FEF73DFA3B
:102AC0000122042184480068FEF737FA7C48006838
:102AD00010F4007F0ED17B4800687B49096888426A
:102AE00008DC3CB977480068401C7649086001243E
:102AF0000127BEE07248006810F4806F0CD1714865
:102B00000068002808DD3CB96E480068401E6D4929
:102B1000086001240127ACE06948006810F4805F78
:102B20000BD168480068012807D134B90124FEF7A9
:102B30001FFA00F058FD01279BE06148006810F47F
:102B4000805FD6D15F4800680228D2D1002CD0D156
:102B5000012462480668D0F804800125FEF708FACF
:102B60007EE0002E2DDD012F2BD1012211465C4885
:102B70000068FEF7E2F9012202214846FEF7DDF97E
:102B80000AA92846FEF746FA072202210AA8FEF7FC
:102B9000D4F90AA93046FEF73DFA092202210AA813
:102BA000FEF7CBF90122032148480068FEF7C5F97A
:102BB00045450DD1012203214A480068FEF7BDF9C1
:102BC00006E02EB90122114647480068FEF7B5F924
:102BD0003B48006800F48060B0F5806F12D138483F
:102BE000006800F40070B0F5007F0BD13448006835
:102BF00000F48070B0F5807F04D1012C02D1002454
:102C000000272DE02E48006810F4007F06D1B54261
:102C100004DA1CB96D1C0124012721E02848006852
:102C200010F4806F06D1002D04DD1CB96D1E012447
:102C3000012715E02248006810F4805F10D17CB9AC
:102C40000124FEF795F9691E03A800F09EFD07A870
:102C500007C88DE8070003A80FC8FFF77BFC012712
:102C60001748006800F40060B0F5006F3FF479AFDA
:102C700001271348006800F40060B0F5006F3FF4CE
:102C8000A4AE0DB0BDE8F083002000E0401CB0F51C
:102C9000797FFBDD7047002000E0401C43F6506167
:102CA0008842FADB70470000202020205B5B202F49
:102CB000205D5D20202020200000000084000020F6
:102CC0000818014054010020CC000020EC00002036
:102CD000880000208C0000209000002000F00308F5
:102CE000940000209C0000209800002010B5FE48B1
:102CF000C06940F40010FC49C861FC48006850B944
:102D00000D220621FA48FDF755FF0D220721F8484C
:102D1000FDF750FF0FE0F748406840F00200F5492A
:102D200048600D220821F248FDF744FF0D220921D9
:102D3000EF48FDF73FFF1F200521002807DA0A07AB
:102D4000140EED4A00F00F031B1FD45403E00A07D2
:102D5000130EEA4A135400BFE948008840F400709B
:102D6000E74908800846008840F4806008800846EB
:102D7000008840F48070088008460088E1490968AE
:102D80000843DF490880DE4818300088DE490968BA
:102D90000843DB4918310880081D0088DB490968B1
:102DA0000843D7491C310880D548001F008840F0EF
:102DB0000100D349091F08801F2000F0F8F92020E6
:102DC00000F0F5F910BD30B504460B46002105E0D2
:102DD00053F82100CE4D45F82100491C202903DA83
:102DE00053F821000028F3D1012A03D10020C84D57
:102DF00028600121C7480160C74804600120C74D11
:102E000028600020C64D2860BD48001F008840F49F
:102E10008070BB4D2D1F2880002030BD10B50346AB
:102E2000C0480260BC4803600020BF4C2060012005
:102E3000BE4C2060B248001F008840F48070B04C47
:102E4000241F2080002010BD0020AD490C310880D7
:102E5000B5490860AF490860B2490860704700B5DD
:102E60001F2001218140B24A430942F8231000BFCC
:102E7000A3481030008800F00100012812D1A748B3
:102E80000068012803D0A948006801280AD1A24897
:102E900000689B490C310880081D008820F0010063
:102EA000091D088096481030008800F002000228B2
:102EB00036D19A480068012803D09C480068012850
:102EC0002ED18F481030008820F002008C4910313C
:102ED0000880081D008820F00400091D0880914822
:102EE0000068012810D19148006801280CD184485D
:102EF000001F008820F480608149091F088008466F
:102F0000008840F40070088088480068012807D1D4
:102F10007B48001F008840F480607949091F0880C1
:102F200077481030008800F0800080280DD17B4861
:102F30000068012809D17648006871490C31088081
:102F400079480068401C78490860774800687149F2
:102F50000968884219D171480068012815D10020FC
:102F60006E4908606648001F008840F4007064499C
:102F7000091F088000BF6248001F008800F400702D
:102F8000B0F5007FF7D0FFF75FFF5D481030008895
:102F900000F00400042829D160480068012825D1E8
:102FA00057481030008800F0800080281ED15B4810
:102FB000006801281AD15C480068564909688842AF
:102FC00014DA53485849096850F821004C490C312B
:102FD000088055480068401C534908604848103034
:102FE000008820F004004649103108804448103021
:102FF000008800F04000402840D14C48006801287B
:103000003CD13F480C300088C0B24A49464A126859
:1030100041F8220044480068401C43490860414888
:1030200000680968401A012807D13548001F008848
:1030300020F480603249091F08803A4800683A4904
:103040000968401A1AD12E48001F008840F4007009
:103050002B49091F088000BF2948001F008800F481
:103060000070B0F5007FF7D000203049086031498A
:103070002D4A126841F82200FFF7E6FE00BD204805
:103080001030008800F48060B0F5806F61D1264870
:10309000006838BB1A481030008820F48060184956
:1030A000103108801648001F008840F40070144951
:1030B000091F088000BF1248001F008800F400703C
:1030C000B0F5007FF7D016480068401C144908602E
:1030D00008460068032836DB0020144908600F49C1
:1030E000086029E035E00000001002405C0100208B
:1030F000000C01400000014018ED00E000E400E099
:103100000454004060010020640100206801002098
:10311000180300207C0100206C01002074010020B5
:10312000880100208401002080010020700100201F
:1031300080E200E0980300202349086023490860EA
:103140002349086005E02348008840F48070214945
:10315000088020481430008800F48060B0F5806F4B
:1031600024D11A48006808B31A481430008820F4A3
:10317000806018491431088017480068401C1649BF
:1031800008600846006803280BDB0020134908602C
:10319000134908600C4908600C4908600C49086034
:1031A00004E00A480068401E08490860704700F0C3
:1031B0001F020121914042094FF0E02303EB8202FC
:1031C000C2F80011704700007C010020800100203F
:1031D000840100200054004088010020700100207C
:1031E0007401002010B5092203219648FDF7E2FC86
:1031F000092204219348FDF7DDFC092205219148AD
:10320000FDF7D8FC082206218E48FDF7D3FC0922E1
:1032100007218C48FDF7CEFC8B48406840F0080041
:1032200089494860262000F01F020121914042098F
:103230004FF0E02303EB8202C2F8001100BF0A2125
:10324000002807DA0A07140E804A00F00F031B1F3C
:10325000D45403E00A07130E7D4A135400BF7D487F
:10326000C06940F400307B49C8617B48008840F465
:10327000005079490880081F008878490968084388
:103280007549091F088000207549086010BD014676
:10329000734A1268012A30D0002004E00A5C714BA6
:1032A00043F82020401C202802DA0A5C002AF5D1CD
:1032B0006D4A1060684A128842F00802664B1A8014
:1032C000654A0C3A128822F04002634B0C3B1A808C
:1032D000644A12681B1D1A800122614B1A60002289
:1032E000624B1A605C4A128842F080025A4B1A8084
:1032F0001A46128842F040021A8070475C4A1160F8
:103300004FF0FF32594B1A60534A128842F00402C0
:10331000514B1A800122574B1A604F4A128842F0D3
:1033200020024D4B1A807047262000F01F02012119
:103330009140514A430942F8231000BF46480C38D7
:10334000008800F0800080283AD1454800680128B4
:1033500036D145480068012806D044480068401C22
:103360004149096888421FD100BF3B480C3800889A
:1033700000F040004028F8D13748008820F00800CD
:10338000354908800020364908603348008820F01D
:103390008000314908800846008820F040000880FD
:1033A0000020324908600BE030480068401C2F497B
:1033B00008602C48096850F821002749083908801E
:1033C00025480C38008800F02000202835D12948F5
:1033D0000068012831D125480068401C2349086055
:1033E0001D4808380088C0F3080024491F4A1268A5
:1033F00041F822001E4801681C480068401C8142B8
:103400001BD11548008820F00400134908800846A5
:10341000008820F02000088000201649086013482A
:103420000068401C11490860002114480F4A1268C6
:1034300040F8221000200D49086007480C38008829
:1034400070470000001401400000014018ED00E04A
:1034500000E400E0001002400C4400408C01002019
:103460009801002018040020900100209401002001
:10347000A00100209C01002080E200E098040020D0
:103480002DE9F34F8DB08A46FDA00890FD480690C7
:10349000069802F02DFACDE90201504602F0D4FB65
:1034A000014601900D9802F0BDFA834602F020FA21
:1034B0000646DDE9022300F099FE0022F24BCDE939
:1034C000040102F039F804460022F04B01F000FF3D
:1034D000804601F0A7FB0790ED480068012810D056
:1034E000022209A90D98FDF7AAFE0DF12B000899FB
:1034F00000F040FD0A2109A8FEF761F909A8FFF7CD
:10350000C6FE07980FB0BDE8F08F70B50646E148DB
:10351000006810B9E04806605DE0DE4800681228E7
:1035200007DADD480168304602F00EFADA49086031
:1035300051E0D848006812281DD1D848006802F030
:10354000D7F904460022134601F0B2FD10D0D44949
:10355000D248006802F066FA0446D149CE480068B5
:1035600002F060FA0546214602F0BEFCCD49086033
:10357000CA4806602FE0C748006812280BDDC5481E
:103580000068232807D0C5480168304602F0DCF9FE
:10359000C24908601FE0BF48006823281BD1BF480C
:1035A0000168304602F0D0F9BC490860BC49BA480D
:1035B000006802F037FA0446B949B848006802F0DA
:1035C00031FA0546214602F08FFCB64908604FF0FB
:1035D000FF30B0490860AF480068401CAD49086042
:1035E000B048006870BD3EB5AFA4B0A50020B14999
:1035F000086004220221B0480068FDF79EFC69467D
:10360000AE480068FDF706FD052203216846FDF778
:1036100094FC0A2203212046FDF78FFC52E0A848C3
:10362000006800F48060B0F5806F0DD1A448006898
:1036300000F40070B0F5007F06D19E4800680128B4
:1036400002D100209B4908609D48006810F4806FFB
:1036500019D198480068B0B998480068401E974949
:103660000860694695480068FDF7D4FC05220321EF
:103670002846FDF762FC052203216846FDF75DFC44
:1036800001208C4908608E48006810F4007F19D131
:1036900088480068B0B989480068401C87490860BC
:1036A000694686480068FDF7B5FC052203212846D7
:1036B000FDF743FC052203216846FDF73EFC01208F
:1036C0007C4908607E48006800F48050B0F5805F57
:1036D000A5D000207B4908603EBD0FB470B57A4884
:1036E0000468456804EB8401774A083202EBC100A4
:1036F00004A900F085FB04EB8401734A0C3202EB51
:10370000C10005A900F07CFB04EB84016E4A103275
:1037100002EBC10006A900F073FB04EB84016A4AC6
:10372000143202EBC10007A900F06AFB04EB84012C
:10373000654A183202EBC10008A900F061FB04EBF6
:103740008401614A1C3202EBC10009A900F058FB58
:1037500004EB84015C4A203202EBC1000AA900F0AC
:103760004FFB0F2C00DA641C0F2D01DA6D1C00E0FA
:1037700000252146544800F09DFB29465248001D73
:1037800000F098FB70BC5DF814FB30B587B00546BF
:103790000C4604EB84004C4901EBC00080680090AB
:1037A00004EB840001EBC000C068019004EB8400CE
:1037B00001EBC0000069029004EB840001EBC00043
:1037C0004069039004EB840001EBC0008069049021
:1037D00004EB840001EBC000C069059004EB840099
:1037E00001EBC000006A06901C226946284600F0E2
:1037F000E5FB07B030BD354951F82010344A11803F
:10380000344951F82010344A1160704730481C3850
:10381000008820F001002E491C3908802F480068DC
:103820002D49096890FBF1F201FB120038BB2C48CE
:10383000006800F48050B0F5805F08D12848001D72
:10384000006840F080502649091D08600CE02448BB
:10385000006810F4805F07D12148001D006840F423
:1038600080501F49091D08601D48006800F4006071
:10387000B0F5006F3BD11A48001D006832E042E00D
:103880003B0A0D00AEDC423E0000F03F40A5E540A3
:1038900098010020E4020020E8020020EC02002051
:1038A00000009041E00200206850610020202020AC
:1038B0000000000058010020DC020020A8010020C8
:1038C00008180140AC01002000F00308DC010020D2
:1038D0002C0800405C020020CC0100202C000020BD
:1038E0000C08014040F00060074908600BE0064802
:1038F000001F006810F4006F05D10348006840F411
:1039000000600149086070471008014070B5024628
:103910000021D569D06900F47F40D061002323E005
:10392000184603EBD0767610A3EB4606012E05D1A0
:10393000581052F82000C0B2414005E0581052F82B
:103940002000C0F30F20414008240AE011F4004F8A
:1039500004D04FF4405080EA410100E04900601E6D
:10396000C4B2002CF2DC5B1C102BD9DB0F2000EA68
:103970001131D561084670BD2DE9FF4107460C465F
:10398000002000900190002600252AE000BFF148A9
:10399000006818B1F04800680028F8D105F1A000CF
:1039A000029000200390002202A9EC20FFF70BFAFE
:1039B00000BFE84800680028FBD102226946ED20DC
:1039C000FFF72CFA00BFE44800680028FBD1E34869
:1039D0004068E249096840EA012044F82600761C64
:1039E000AD1C0E2DD2DD2046FFF790FF0B2803D132
:1039F000002004B0BDE8F0814FF0FF30F9E71CB5BE
:103A00000446D74903C9CDE9000100BFD148006889
:103A100018B1D14800680028F8D100226946EC208E
:103A2000FFF7D1F900BFCB4800680028FBD1FFF7B2
:103A300032F9CC49EC20FFF79FFF1CBD7CB5044652
:103A4000002000900190012C30D1442000900022F1
:103A50006946EC20FFF7B7F900BFBE4800680028B0
:103A6000FBD1FFF718F90020009001226946EC20F5
:103A7000FFF7A9F900BFB74800680028FBD103226F
:103A80006946ED20FFF7CAF900BFB3480068002877
:103A9000FBD1B24800680004B049496840EA0120FF
:103AA000AE49896840EA010528467CBD022C30D128
:103AB0005420009000226946EC20FFF784F900BFF3
:103AC000A44800680028FBD1FFF7E5F8002000902B
:103AD00001226946EC20FFF776F900BF9D48006897
:103AE0000028FBD103226946ED20FFF797F900BFBC
:103AF000994800680028FBD198480068000497495D
:103B0000496840EA01209549896840EA010528464C
:103B1000CBE74FF0FF30C8E72DE9F04F89B0022026
:103B2000FFF78CFF064601F02EFBCDE906010022CF
:103B30008D4B1046590200F059FB80468946894951
:103B4000486901F020FB064642464B4601F0C0FBA7
:103B50008246DDE9062301F0EFFC04460D46002213
:103B6000824B10464FF0804100F040FB8046894672
:103B70007C49486901F007FB064622462B4601F0C6
:103B8000A7FB42464B46CDE9000101F039F98246D8
:103B90000022774B01F078F8CDE90401DDE904015A
:103BA00001F040F803907349039801F03BFF039044
:103BB000714A30C2039809B0BDE8F08F2DE9F04F8B
:103BC00093B00120FFF73AFFC117CDE910010022A1
:103BD0006A4B10464FF0804100F008FB04460D464A
:103BE0006049086901F0CFFA064663480CC83046C0
:103BF00001F06EFB22462B46CDE9040101F000F9ED
:103C000082468B4600225E4B10464FF0804100F00A
:103C1000EDFA04460D465349886801F0B4FA0646A9
:103C200022462B4601F054FB52465B46CDE9060185
:103C300001F02AF8804602F0CDF9CDE90E0100220C
:103C4000494B1046590200F0D1FA80468946454951
:103C5000C86801F098FA064647480CC8304601F09B
:103C600037FB044642464B4601F0CAF882468B4673
:103C70000022444B10464FF0804100F0B7FA044652
:103C80000D463849486801F07EFA064622462B4622
:103C900001F01EFB52465B46CDE9040100F0F4FF43
:103CA000CDE9060102F096F9CDE90C010022354B71
:103CB00010464FF0804100F099FA04460D46DDE9C8
:103CC0000E0101F077FA06460F4600222E4B1046F1
:103CD000990300F08BFA80468946DDE90CCBDDE9DB
:103CE0001001A0FB0C2E01FB0CE100FB0B11104698
:103CF00001F060FA42464B46CDE9000101F080F840
:103D000032463B46CDE9020101F008FD22462B4632
:103D1000CDE9040101F074F8CDE9060102F05AF989
:103D2000CDE90A01DDE90A0101F044FA044600F098
:103D300079FF09900F49099801F074FE0990134921
:103D4000099801F001FE0990099801F0D1FD13B026
:103D5000BDE8F08F7401002070010020980300205E
:103D6000886100081805002000002040000037404E
:103D700000409F400000C8420803002000001C4093
:103D80000000304000002E40000035400080D94344
:103D90007448006874494860744800684860084680
:103DA000006900F08000802802D14FF0FF3070479A
:103DB0000020FCE76C48006940F080006A49086117
:103DC00070476949C96811F0010F18D1664909693E
:103DD00041F00201644A116111464861096941F0EC
:103DE0004001116100BF6049C96801F0010101296A
:103DF000F9D05D49096921F002015B4A1161704700
:103E00002DE9F04706460F460025A6F10060C40ADA
:103E10004FF0006000EBC420301A4FEA50083868B9
:103E20001FFA80FA38684FEA104900230AE005F1CA
:103E3000006000EBC42000884D4921F81300A81C45
:103E400085B25B1CB3F5806FF1DB494820F818A000
:103E5000014608F1010021F81090FFF799FF304664
:103E6000FFF7AFFF4048006940F001003E4908619C
:103E70000025002311E03E4830F8131005F10060E2
:103E800000EBC420018000BF3748C06800F001008B
:103E90000128F9D0A81C85B25B1CB3F5806FEADB62
:103EA0003148006920F001002F490861FFF782FFC7
:103EB000BDE8F0872DE9F04706460F460025A6F13C
:103EC0000060C40A4FF0006000EBC420301A4FEAD3
:103ED00050081FFA87FA4FEA174900230AE005F154
:103EE000006000EBC4200088214921F81300A81CC1
:103EF00085B25B1CB3F5806FF1DB1D4820F818A07C
:103F0000014608F1010021F81090FFF741FF30460B
:103F1000FFF757FF1448006940F00100124908619B
:103F20000025002311E0124830F8131005F100605D
:103F300000EBC420018000BF0B48C06800F0010006
:103F40000128F9D0A81C85B25B1CB3F5806FEADBB1
:103F50000548006920F0010003490861FFF72AFFC6
:103F6000BDE8F08710030020002002401403002069
:103F70003805002040EA0103024630B59B0710D106
:103F80004FF0013400E008C208C91D1B9D4315EA2B
:103F9000C41FF8D013F0FF0102F8011B0DD01B0A5B
:103FA000F8E711F8013B002B02F8013B05D011F8AE
:103FB000013B002B02F8013BF3D130BD10B5203A94
:103FC000C0F00B80B1E81850203AA0E81850B1E8D2
:103FD0001850A0E81850BFF4F5AF5FEA027C24BF88
:103FE000B1E81850A0E8185044BF18C918C0BDE87F
:103FF00010405FEA827C24BF51F8043B40F8043B48
:1040000008BF7047D20728BF31F8023B48BF11F8FC
:10401000012B28BF20F8023B48BF00F8012B704756
:104020004FF0000200B5134694469646203922BF51
:10403000A0E80C50A0E80C50B1F12001BFF4F7AF9C
:10404000090728BFA0E80C5048BF0CC05DF804EB7E
:10405000890028BF40F8042B08BF704748BF20F8EC
:10406000022B11F0804F18BF00F8012B70477047EA
:104070007047704700487047380D002010B5FFF7B3
:10408000F9FF006810BD10B50446FFF7F3FF0460A8
:1040900010BD000000487047380D00207546FFF73E
:1040A000F9FFAE4605006946534620F007008546F5
:1040B00018B020B5FCF796F8BDE820404FF0000698
:1040C0004FF000074FF000084FF0000B21F0070100
:1040D000AC46ACE8C009ACE8C009ACE8C009ACE843
:1040E000C0098D4670470446AFF300802046FCF7B8
:1040F00066F80000004870473C0D00200149182078
:10410000ABBEFEE7260002007047490050EAC1201E
:1041100018BF04204A0D18BF40F0010040F2FF72A2
:10412000B2EB515F08BF40F00200012808BF052034
:1041300070472DE9F0414F1E00EBC7010446D1E95D
:10414000000115461E4637F006020DD02A463346BA
:1041500001F0BEF87F1E04EBC703D3E9002300F093
:1041600093FD37F00602F1D1022F25D0042F13D092
:10417000062F18BFBDE8F0812A46334601F0A8F8A3
:10418000D4E90A2300F080FD2A46334601F0A0F866
:10419000D4E9082300F078FD2A46334601F098F868
:1041A000D4E9062300F070FD2A46334601F090F86A
:1041B000D4E9042300F068FD2A46334601F088F86C
:1041C000D4E9022300F060FD2A46334601F080F86E
:1041D000D4E90023BDE8F04100F056BD024A0020BA
:1041E000110701F08ABF000001FDFFFF2DE9F04D2E
:1041F00016460F460546020096B01C4621F00041C7
:1042000023F0004014BF4FF0010C4FF0000C0CEBFA
:10421000470CFE4B0CEB03084FEA630CC4452DD84A
:104220005FEA060818BF4FF0010808EB44089844FD
:10423000F74B434522D8F74B50EA060C02D09F4279
:1042400005D14AB916B000201946BDE8F08D002A04
:1042500008BF4FF0000C01D04FF0010C0CEB4703EE
:1042600013F5001F0AD8002E14BF4FF0010C4FF0B9
:10427000000C0CEB440313F5001F08D916B03246AE
:10428000234628463946BDE8F04D00F0FDBCDFF876
:1042900088B34FF0000A002FB8BF584523DADF4B30
:1042A0009842A8BF4FF0020A1DDADA4B98421ADB97
:1042B000DB4B03EB2053142B08DDC3F1340C26FA3F
:1042C0000CF303FA0CFCB4450DD108E05EB9C3F160
:1042D000140C20FA0CF303FA0CFC844503D103F010
:1042E0000103C3F1020A51EA020321D1002C1FDAB3
:1042F000002F18BFBAF1020F02D0BAF1010F0BD094
:104300000220FFF7C0FE16B00022BDE8F04D1346B4
:104310001046C04900F074BD0220FFF7B4FE16B08D
:104320002A463B46BDE8F04D0020BA4900F068BD82
:10433000330076D1584525D107F1804010F5801023
:1043400001BF002A0020B34916B008BFBDE8F08DB8
:10435000B048814207DB002CA1BF1846214616B0A9
:10436000BDE8F08D07E0201E05DA80F0004116B0B0
:104370001846BDE8F08DAB497944D1E9000116B08B
:10438000BDE8F08DDFF88CC260452FD1002C28DA13
:1043900039B159451CD1002A04BF002002460CD077
:1043A0001FE06AB10220FFF76EFE40F201320020EA
:1043B0004FF0E04101F0A1FE0A46394600F0DEBAB6
:1043C000954A394616B0002062F31E01BDE8F08D13
:1043D00007DA16B03B46BDE8F04D0020614600F01C
:1043E0000FBD16B010463946BDE8F08D8B4518DD7F
:1043F000B4F1804F0DD0A4F10053B3F1FF5310D1AD
:104400003B1E0EDB16B01046BDE8F04D194600F01D
:10441000E3BB3B4616B01046BDE8F04D194600F030
:1044200057BF27F00043A2BBE1B1594538D1002F57
:1044300006DD002CA1BF0020594616B0BDE8F08D66
:10444000002F01DD002C1FDB002F16DA002C14DBFF
:10445000BAF1010F4FF000000CBF73496E4916B05E
:10446000BDE8F08DBAF1020F18BF002F0CD0BAF1E1
:10447000010F09D1002F07DA0CE0002FB8BF002C84
:104480000EDABAF1010F05D0002016B00146BDE8E2
:10449000F08D05E016B000204FF00041BDE8F08D32
:1044A0004FF0010C0CEBE7720F9252EA0A020BD0AC
:1044B0005E4A90427DDD5E4B5E4A984216DD914237
:1044C0000EDC002C1CDB2CE00120FFF7DCFD16B01D
:1044D0000022BDE8F04D13461046114600F090BC96
:1044E0004C48884202DC002C0ADC1AE08A4202DDD9
:1044F000002C05DB15E0474B99421EDD002C10DD3A
:104500000220FFF7C0FD40F2013200204FF0E041F1
:1045100001F0F3FD404A16B061F31E021146BDE8FA
:10452000F08D0220FFF7AFFDFFF758FE394A16B0B5
:1045300061F31E021146BDE8F08D0022284639467F
:1045400001F0ECF805460F466FF0010201F0D5FDD1
:104550004FF05532384B00F0EFFF2A463B4600F053
:10456000B7FE0022354B00F0E7FF8B4680462A4617
:104570003B461046194600F0ABFE42465B4600F053
:10458000A7FE80460B914FF0C0422D4B284639467E
:1045900000F09EFE834605912A4A294B40460B991E
:1045A00000F096FE88460290274A284B2846394656
:1045B00000E01BE000F08CFE4346029A01F0AEF8EA
:1045C000054602460B460B915846059900F05CFBE8
:1045D000002788465A463846059B01F09FF82A4630
:1045E0000B9B00F0A9FF024600F073B90020B1F563
:1045F000801F07DA35222846194601F07EFD054660
:104600006FF0340000EB215022E00000FFFF1F009C
:10461000FFFF0F000000F03F0000F07F000040436C
:1046200001FCFFFF9C1E00000000F0FF0000E041C5
:104630000000F043FFFFEF3F5555D53F0000E03F3E
:104640004715F73FFE822B6544DF5DF80BAE543E05
:10465000A0F2FF300190C1F3130040F07F6141F000
:1046600040510291FE498842D8BF4FF0000B0EDD49
:10467000FC498142C8BF4FF0010B08DC01984FF0A4
:10468000000B401C01900298A0F580100290F648A3
:104690000299784400EBCB0009910790D0E9002300
:1046A000284601F03BF8059100900798D0E90023D7
:1046B0002846099900F0E8FA02460B460020EB492B
:1046C00000F09EFB0B910B46024606900599009860
:1046D00000F0FEFD0A90E64888460027784400680E
:1046E0000C9002994FF0005040EA610000EB8B40C3
:1046F00000F5002102910798D0E900230C9801F001
:104700000DF82A46099B00F017FF3A46434600F091
:10471000DFFD0791054638464146029B0C9A00F0A2
:10472000D7FD059B009A00F007FF2A46079B00F083
:10473000F5FF0B9B069A00F0CBFD0A9A06910890B4
:1047400043461046194600F0C3FD05460246C948D7
:104750000B46079106217844FFF7EBFC0290079B7C
:104760002A4605911046194600F0B2FD059B029AB3
:1047700000F0AEFD059105464346384619460A9AB3
:1047800000F082FA069B089A00F0A2FD2A46059BDB
:1047900000F07AFA3A4643460591129010461946BF
:1047A00000F096FD0022B44B0791009000F06CFAE7
:1047B000059B129A00F068FA0D463A46AE4B384611
:1047C00000F0ACFF079B009A00F0A8FF059B129A2F
:1047D00000F0B2FE3A46079112902B461046414631
:1047E00000F076FD0591009043460A9A07991298C9
:1047F00000F06EFD804607912B463A4606990898D0
:1048000000F066FD4246079B00F03EFA884606909F
:10481000059B009A00F038FA00200F460546059BDC
:10482000009A00F07BFF4346069A00F085FE804622
:104830000D914FF06042914B2846394600F048FDFB
:10484000059100908E4A8D4B40460D9900F040FD39
:10485000804604918B4A8C4B2846394600F038FD3F
:104860004246049B00F010FA884A7A4402EBCB03DC
:10487000D3E9002300F008FA02900491019800F0B7
:1048800082FC0791DDE904310546029A009800F0A8
:10489000FBF97F4A7A4402EBCB0BDBE9002300F003
:1048A000F3F92A46079B00F0EFF9002788462A46CD
:1048B0003846079B00F032FFDBE9002300F02EFFB3
:1048C000059B009A00F02AFF049B029A00F034FE38
:1048D000024600200A900F98644DAAF10103184384
:1048E00001D16C4D0A9000200B46029030462146C3
:1048F00000F0EEFC82468B46234630461946029A6B
:1049000000F00CFF3A46434600F0E2FC52465B469C
:1049100000F0BAF906468A463A46434621460298CE
:1049200000F0D6FC04460F463246534600F0ACF980
:10493000594A8B46914226DBABEB020353EA000255
:1049400010D122463B4600F0E9FE80460391534ACF
:10495000534B3046514600F097F94246039B00F016
:10496000B5FD2CD20220FFF78EFB40F20132002071
:104970004FF0E04101F0C1FB0A46294616B062F350
:104980001E01BDE8F08D474B2BF000429A4216D332
:10499000454A0BEB020353EA000208D122463B468C
:1049A00000F0BCFE3246534600F090FD07D80220CE
:1049B000FFF769FBFFF712FC0A462946DEE72BF0FA
:1049C00000403A493A4A01EB20514FF0000890422A
:1049D00023DD481C4FF4801121FA00F05844C0F345
:1049E0000A51344AA1F2FF317A44334B1268CB406A
:1049F00020EA0303C0F3130040F4801CC1F114004B
:104A00002CFA00F8BBF1000FB8BFC8F1000820462F
:104A1000394600F083FE04460F4622463B463046A8
:104A2000514600F031F94FF0000B5A46234B5846DF
:104A3000079100F04DFC05910090214A214B58460A
:104A4000079900F045FCCDE9020122463B46584655
:104A5000079900F063FE3246534600F06DFD33E0E7
:104A60008E9803007AB60B00FA1A00000000F03F9F
:104A7000381B0000661A00000000084009C7EE3F1E
:104A8000FD033ADCF5015B14E02F3EBE4219000045
:104A9000081900000000F0BF00009040FE822B6566
:104AA0004715973C00CC904000346F3F01FCFFFF5E
:104AB0000000E03F2C180000FFFF0F00432EE63FF0
:104AC000396CA80C615C20BE3F4A404B00F000FCF2
:104AD000DDE9022300F0D8F807468A46059B009AD4
:104AE00000F0D2F804460E46059B009A00F016FE30
:104AF0003A46534600F020FD0746224633460B91C6
:104B00001046194600F0E4FB8346024630488A46C8
:104B10000B4605217844FFF70CFB5A46534600F03C
:104B2000D7FB2246334600F007FD82468B463A46C5
:104B3000204631460B9B00F0CBFB3A460B9B00F026
:104B4000A3F800910C9000224FF080435046594644
:104B500000F0E4FD0746039152465B46204631468D
:104B600000F0B6FB3A46039B00F04AF9009B0C9A12
:104B700000F0D4FD2246334600F0D0FD0022154B54
:104B800000F0DAFC0E46044601EB08510815002837
:104B900010DC42462046314601F0AFFAFFF7B5FA85
:104BA000042808BFFFF71AFB42462046314601F0B1
:104BB000A4FA04460A980B4616B022462946BDE8D8
:104BC000F04D00F085BB0000EF39FAFE422EE63FC3
:104BD000D81600000000F03F2DE9F04106460F46D0
:104BE00000F0B6FC0D46040018BF0120284320F059
:104BF0000040C0F17F6010F1E0400FD5002E14BFDF
:104C000001200020384320F00040C0F17F6000F117
:104C1000E0400028A4BF0120FFF735FA20462946CE
:104C2000BDE8F08121F00042A2F16052B2F5801F90
:104C300001F0004328BFD2F17F6C0BD95FEA001C62
:104C400043EAC20242EB507018BF704728BF20F001
:104C500001007047B2F5801FBCBF184670474FEA8D
:104C6000410C1CF5001F02D2084601F007B970B5CF
:104C700000F0D8FB00000089FFF7F6BF4FF00040BE
:104C8000A0F580007047000010B591EA030F48BFFF
:104C900083F0004300F14A85841A71EB030C05D2BE
:104CA000121943EB0C03001B61EB0C01DFF824E14C
:104CB0004FEA1154A4EB135C1EEA430F18BF9EEA9F
:104CC000445F73D023EA0E03DCF1200E21EA045185
:104CD00043F4801332D322FA0CFE10EB0E0023FAB9
:104CE0000CFE41EB0E01CCF1200E03FA0EFE10EB90
:104CF0000E0051F10001B1F5801FCCF1200E32D22F
:104D000001EB045112FA0EF2BDE8104058BF704793
:104D1000401C38BF5FEA420218BF7047002814BF2A
:104D200020F0010041F100014FEA410313F5001F9B
:104D300038BF7047A1F1C04100F0C2BB012A43EB6C
:104D40000302ACF1200CDCF11F0E32BF4FF0000E5D
:104D500023FA0CF310EB030041EB0451B4EB115FA9
:104D6000D0D0A1EB045101F5801149085FEA300071
:104D700001EB04510ED350F1000038BF12FA0EFEC1
:104D800008D1BDE81040C9E7401C38BF5FEA4202C5
:104D9000CAD1C3E7BDE810404FEA410313F5001F35
:104DA00038BF7047A1F1C04100F08ABB9EEA445F62
:104DB00008D011EA5E0FBDE8104004BF01F00041C9
:104DC00000207047BDE8104070B500F02BFB00BF1D
:104DD00064FBBE3E0000E0FF02494FF0000001F01E
:104DE0005AB900BF0000F87F491058BFC1F14041D7
:104DF0005B1058BFC3F140438B42EFF30080704714
:104E00002DE9C04130B4DFF8A0C23CEA111418BF4C
:104E10003CEA131400F0EC8081EA03051CEA11144B
:104E200044EAD57418BF1CEA131500F0C780A4EB40
:104E300005044FF0004545EAC12145EAC32341EA94
:104E4000505143EA525304F17F74994204F50034FF
:104E50004FEAC0204FEAC22208BF904200F09C8077
:104E60004FEA13650FF24016765D4FEA134506FBD5
:104E700005F7C7F1807706FB07F74FEAD737A7FB9F
:104E800003687642C8F58038A7FB06CE38BFA8F184
:104E9000010807FB08E64FF0000EA6FB028CE6FBBC
:104EA00003CEDCF1000CCEF1004E38BFAEF1010EA6
:104EB000A6FB0C584FF000074FF00005E6FB0E87ED
:104EC000A1FB08C6A0FB07CE16EB0E0645F10005B8
:104ED000E1FB076515F1E04E7EBFA4F580345FEA83
:104EE00046066D4116F1800745F100054FEA172788
:104EF0004FEA066647EA0567A6F1DE46B6F1805F2F
:104F00004FEA15251FD9384624F0010C05EBC47172
:104F1000BCF1FE6F01EB0C1102D8F0BCBDE80081C2
:104F200024425CBF01F5801E9EEAC47F02D4F0BC1F
:104F3000BDE80081244238D4F0BCA1F1C041BDE8F5
:104F4000004100F0BDBA4FEAD22242EA43524FEA92
:104F5000D323A7FB02864FEAD02040EA415007FB4B
:104F600003661EEA0E0F4FEAD12105FB026658BF09
:104F7000A6EB0056B6EB00564FEA520E4EEAC37E41
:104F800018EB0E0E56EB530EBDD518EB02085E4122
:104F90007F1C55F10005B6E74FF480154FF0000770
:104FA0004FF000064FF00008ADE7F0BC4FF00000F6
:104FB00001F1C04101F00041BDE8008111EA0C1F80
:104FC0000CEA131500D00CE013EA0C1F00F025804A
:104FD0004FF00000F0BC81EA030101F00041BDE8A0
:104FE0000081F0BCBDE8004181EA030100F068BA2D
:104FF000F0BCBDE8004170B500F014FA097EFC3E3B
:1050000000F007B881EA03014FF0000001F0004111
:10501000704781EA030100F053BAF0BCBDE80041DB
:105020004FF0000021497047FFFDFBF9F7F5F4F25E
:10503000F0EEEDEBE9E8E6E4E3E1E0DEDDDBDAD833
:10504000D7D5D4D3D1D0CFCDCCCBCAC8C7C6C5C491
:10505000C2C1C0BFBEBDBCBBBAB9B8B7B6B5B4B3A8
:10506000B2B1B0AFAEADACABAAA9A8A8A7A6A5A493
:10507000A3A3A2A1A09F9F9E9D9C9C9B9A99999857
:105080009797969595949393929191908F8F8E8EFA
:105090008D8C8C8B8B8A8989888887878685858487
:1050A00084838382828181800000FF070000F87F73
:1050B00051EA030C17D41CF5801F58BFBCF5801FA4
:1050C00000F10680994218BF704708BF90427047B0
:1050D00007D711F5801F58BF13F5801F19D49942C7
:1050E0007047894270471CF5801F08D5BCF5801FAA
:1050F000F7D58B4218BF704708BF824270474FF404
:10510000001C1CEB410F38BF1CEB430F01D28B423C
:10511000704770B500F086F9922449004FF00051B5
:105120004FF08053FFF760BE4FEA41034FEA5353FD
:10513000A3F58063D3F11E03C8BFD3F1210C0CDDAE
:105140004FF0004242EAC12242EA505232FA03FCD6
:105150008CEAE17CACEBE1707047102BC4BF0020FF
:10516000704703F5787CBCF1FF3F04D06FF000423C
:1051700082EA2100704770B500F054F9499224800A
:1051800000207047F2E710F0004248BF4042B0FAFA
:1051900080F310FA03F10AD0C3F11D0303F5806315
:1051A0004FEA415002EB035202EBD12170474FF01E
:1051B000000070477FEAE17202D1101A62EB010130
:1051C000B1FA81F30B3B24D3994012D1B0FA80F3AA
:1051D00010FA03F108BF7047C3F11D0303F54063E4
:1051E00003EBC2234FEAD1224FEA415002EB0351B5
:1051F0007047C3F1200C20FA0CFC9840C3F1320335
:1052000003F5406303EBC22341EA0C0101EB0351B8
:10521000704710B5C3F1320CC3F10004C4F1200E85
:105220000CF5406C0CEBC22201FA0EFC21FA04F1E1
:1052300000FA0EF3E040BDE8104040EA0C0001EB3C
:10524000025138BF7047401C41F100015B0008BFAC
:1052500020F001007047000051EA030C17D41CF540
:10526000801F58BFBCF5801F00F10680994218BF0F
:10527000704708BF9042704707D711F5801F58BF8D
:1052800013F5801F19D499427047894270471CF565
:10529000801F08D5BCF5801FF7D58B4218BF70471B
:1052A00008BF824270474FF4001C1CEB410F38BF0F
:1052B0001CEB430F01D28B42704770B500F0B2F87F
:1052C000922449004FF000514FF08053FFF78CBDFE
:1052D000DFF848C170B51CEA111E1EBF1CEA131589
:1052E0009EEA0C0F95EA0C0F00F06F8081EA030430
:1052F00023EA4C134EEAD47E21EA4C1141F480118A
:1053000043F48013AE44A1FB024CA0FB0365AEF155
:105310007F7E361955EB0C05A1FB034C4CF10003C5
:10532000A0FB021C16EB0C06654153F10003094279
:1053300018BF46F0010613F4007F0BD14FEA03318A
:105340004FEA0530340341EA155140EA16506FF038
:1053500003020AE04FEAC3214FEAC520F40241EA02
:10536000555140EA56506FF0020202EB2E4201EB1B
:10537000025585EACE710AD05FEA440C18BF24F0CA
:10538000004450F1000041F1000120EAD47040F2E5
:10539000FE7C624500D270BDA84214BF4FF080442D
:1053A0004FF04044002E08BF0024BEF1806FA8BF1C
:1053B000A1F1C041BDE8704080F282804FF0000052
:1053C00001F1C04101F0004170479EEA0C0F0CEA68
:1053D000131518BF95EA0C0F06D04FF0000081EAB4
:1053E000030E0EF0004170BD00F01CF88900013E74
:1053F00000F007B800F009B84FEA430C5FEA5C5CC4
:1054000008D081EA030100F05BB84FEA410C5FEA83
:105410005C5CF6D14FF00000014970470000FF07C7
:105420000000F87F0EF1020E2EF0030E5EF8046B02
:10543000364205D4012A43EB030515F5001F12D8A7
:10544000012841EB010C1CF5001F0CD80ED14FEACE
:10545000D17C15F5001F0CEB4C0C0CF1020C08BFB5
:105460004CEBD37C04E04FF0080C01E04FEAD37C16
:105470000CEB4C0526FA05F606F00706B6F1040C0F
:1054800006D20EEB860CBDE870404CF0010C604774
:10549000DFE80CF0090B02024FF000414FF0000072
:1054A000A1F5002170BD19461046012851EB0104F9
:1054B00018BFD4F5001484BF002001F0004170BD76
:1054C0000808A0F500114FEA3101704753EA010CBA
:1054D00017D41CF5801F58BFBCF5801F00F1068053
:1054E0008B4218BF704708BF8242704707D713F539
:1054F000801F58BF11F5801F19D48B4270479B4203
:1055000070471CF5801F08D5BCF5801FF7D5994260
:1055100018BF704708BF904270474FF4001C1CEB47
:10552000430F38BF1CEB410F01D2994270470FB4B3
:105530000CBC03BCFFF7C1BE91EA030F10B581F0AC
:1055400000413FF5A9AB83F0004300F0EFB8000045
:105550002DE9F04101F5801CBCF5001FC0F2C380AD
:105560004FEA115C21EA0C510CF1FD0C41F4801161
:105570005FEA5C0C0CF5C07C01D3400049413DA4BE
:10558000890241EA905187028E0E0A0CA45D04FB49
:1055900004F602FB06F6C6F14046A4FB0662F60DD1
:1055A00046EA422606FB06F4A4FB01235242C3F15D
:1055B000404338BF5B1EA6FB02420024E6FB0324E7
:1055C000D20B42EA4446A6FB0623A1FB02E2A3FB60
:1055D00007E4A4184FF0000252F10002E3FB01427D
:1055E0006442C2F1404E38BFAEF1010EA6FB042367
:1055F0004FF00002E6FB0E32A2FB03464FF0000420
:10560000B61954F10004E2FB0264A1FB06E6A4FB18
:1056100007E816EB08064FF0000858F10008E4FB15
:1056200001687642C8F1405838BFA8F10108A2FBD2
:1056300006E4A3FB08E52D194FF0000454F1000423
:10564000E2FB0854A1FB05E6A7FB04E818EB0608FB
:105650004FF0000656F10006E1FB048618F1200524
:1056600056F10006A809A8F11B08B10908F03F0887
:10567000B8F10A0F40EA86601CD901EB0C51BDE875
:10568000F08100BFFCF5EEE8E2DDD8D3CFCBC7C395
:10569000C0BDB9B6B4B1AEACA9A7A5A3A19F9D9B4F
:1056A0009A9896959392908F8D8C8B898887868512
:1056B00084838281A0FB006800FB01F208EB4208B2
:1056C000B8EB872807D5341858EB0104D5D5401C12
:1056D00051F10001D1E7341A78EB0104CDD4401E1A
:1056E00071F10001C9E75FEA4C0C5FEA9C5C0DD1E7
:1056F00005D34FF0000001F00041BDE8F081BDE8A6
:10570000F04170B5FFF78EFE6DDBFFBEBDE8F041E6
:105710004FF00000004970470000F87F10B591EA93
:10572000030F48BF83F000433FF5B6AA841A71EB1C
:10573000030C07D212198CF0004C43EB0C03001B36
:1057400061EB0C01DFF8A4E14FEA1154A4EB135C08
:105750001EEA430F18BF9EEA445F00F0B08023EAC0
:105760006E03524221EA0451C3EB6E0338BF5B1E45
:10577000DCF1200E25D322FA0CFE10EB0E0043FACA
:105780000CFE41EB0E01CCF1200E03FA0EFE10EBE5
:105790000E0051F10001CCF1200E29D412FA0EF2C4
:1057A00001EB0451BDE8104058BF7047401C1CBFBE
:1057B000B2F1004F704700280CBF491C20F00100D7
:1057C000704712EB020E43EB030218BF4FF0010EBD
:1057D0004EEA4202ACF1200CDCF11E0E54D943FA21
:1057E0000CFE10EB0E0051F1FF31CCF11E0ED5D5A1
:1057F0000EF1010E12FA0EFE404141EB010101EBE8
:10580000445C5FEA5C5C10D910EBDE7001EB045184
:1058100038BFBEF1004FBDE8104018BF70470028E8
:105820000CBF491C20F00100704730D24FEAD42C45
:1058300011F5001124F400641BD0B1FA81F20B3A87
:10584000A41AA41ED2F12003914030FA03F31943A5
:10585000904001EBCC71002C01EB0451BDE81040ED
:10586000A8BF704701F1C0414FF0000001F00041B6
:105870007047B0FA80F310FA03F100D110BDE41ABA
:10588000173C4805C90AE4E701EB045110BD491073
:1058900001EB0451BDE810404FEA300002E04FF048
:1058A000000170474A0008BF0042F8D0B2F5001F5F
:1058B00028BF704701F000414FF0000070479EEA9A
:1058C000445F07D011EA5E0FBDE8104004BF00211D
:1058D00000207047BDE8104070B5FFF7A3FD00BF82
:1058E00040DFF63E83F00041104670470000E0FFC5
:1058F00043004FEAD30C4FEA3C0C43401FBF400724
:105900000CF1605113F0FE4F70471CF0006F03D193
:1059100000200CF0004170470CF0004343EA507047
:1059200010B540EACC0000F05CFA00BF0000009225
:105930004FEA0001FFF7C4BD4FF000414FF00000F7
:10594000A1F500217047000090EA010F48BF81F0E7
:10595000004100F1D082421A3CBF801A89184FEAF8
:10596000D0524FF07F4C1CEA410FA2EBD15318BF2D
:105970009CEA026F00F03B804FF0004C4CEA0020A4
:105980004CEA012121FA03FC10EB0C0C1ED202F1AF
:10599000FF325FEA1C2040EBC25038BF70471CF05A
:1059A0007F0F4FEA400C18BFBCF17F4F38BF7047E4
:1059B000C3F12003994008BF20F00100BCF17F4FE4
:1059C00038BF7047A0F1C04000F058BA4FEA3C0021
:1059D000000A40EBC25028BF1CF0FF0F4FEA400CFA
:1059E000E6D018BFBCF17F4F38BF7047EAE79CEAAA
:1059F000026F05D010EA5C0F08BF00F0004070474E
:105A000010B500F0EEF900BF64FBBE3E401058BF79
:105A1000C0F14040491058BFC1F140418142EFF30D
:105A2000008070474FF47F0C1CEAD0121EBF1CEAA6
:105A3000D11392EA0C0F93EA0C0F00F0858090EAE4
:105A4000010F48BF42F4807240F4000C41F40000A2
:105A50002CF07F4120F07F4000B58142A2EB030291
:105A60000FF2081CACEB504EC0F100009EF800E0B5
:105A70004FEA4E0E00FB0EFC38BF49004FEA2C1CCB
:105A800002F5FA020CFB0EF34FEACE1E4FEA112C80
:105A90004FEAC1210EEB635E42EB22420EFB0CFC8F
:105AA0004FEA1C5300FB03114FEA112C4FEA01315E
:105AB0000EFB0CFC4FEADC4C00FB0C11C14228BF72
:105AC00009184CEB03335DF804EB10EB410143EB99
:105AD000C250B2F57C0F38BF704729D512F0F00FD5
